:100000000000A0E10000A0E10C0000EB09200000CE
:10001000110000EF98250000200500001A000000E4
:10002000986301202C050000003E0120434732392F
:1000300030302052322E30433320202034433220BF
:100040002031303132323031302031383A32343AA6
:1000500033324CE230209CE5010C12E334C09C1595
:1000600000C08C0001C08CE00000A0E3000053E35E
:100070000EF0A0D104008CE4043053005E66000052
:10008000FE4A10B5C0EB001102EB410131F8E44C1F
:1000900011F727FD2046BDE81040FEF638BD30B40C
:1000A0000021F74B09E000BF03EB81025268491CB5
:1000B0009488C9B2C4F30B049480DA788A42F3D8E6
:1000C00030BC2AF7F6BA01694A1C04D040F271220A
:1000D000B1FBF2F101612FF7E9B981694A1C04D043
:1000E00040F27122B1FBF2F181612FF71BBB1CB50D
:1000F0000024019434F79FFEE2480194006890F8D0
:1001000022010009012803D0022808D004280DD0BC
:1001100001AB009301230422002180200CE001ABFD
:100120000093012304221946812005E001AB0093CE
:100130000123042202218220FFF766FC1CBD2DE969
:10014000F04789460D21DFF84083002600FB01843B
:1001500015464FF0010A3746B9F1110F1CD13DB1D8
:10016000012D10D0032D13D1607AFFF7A1FC1AE006
:10017000607AFFF79DFCC549E07A0A7822EA000020
:100180000870E7720FE0607AFFF792FC27730AE0CD
:10019000BF48F6F6A3FD06E098F88E602A46494669
:1001A00036F73BFC8246A9F10509B9F10B0F0CD2D9
:1001B000DFE809F0060B0606060B060B0B0B060024
:1001C000012D02D1277388F88E605046BDE8F08774
:1001D0002DE9F04105460C4616461F460020DDF885
:1001E00018805AF78EF885F820806F802988B142F0
:1001F00003D121688219914201DD1C3020602E80DC
:1002000068882246093081B23046FEF741FD2068F9
:1002100060600020E06001202076BDE8F0819D490B
:10022000096801EB4010C189C1F30B01C181818ACA
:10023000C9B2818200210183C182428B42F0040253
:1002400042838183C18301231A4640F2E2310720B1
:100250005DF700BC2DE9F041064680888E4A00EB30
:10026000800102EB8101CD798C4A05EBC50102EBDF
:100270008101097E29B1FEF73DFA002211465AF7A5
:1002800098F8874C0027206810B125F720FE2760DA
:100290002846FFF7C4FF834826600770BDE72DE9B5
:1002A000F84FDFF80492814F04464FF0000808250C
:1002B0004FF00D0A05FB0AF617F83600012844D165
:1002C0007B48007878BB744905EB850001EB800022
:1002D00080792179884238D1207A4FF001080028AE
:1002E00007EBC600016A1AD109B9818C0162491E67
:1002F00001620120217909F8010025F74EFE002056
:1003000059F7FFFF07EBC601096A431C21F07C4245
:10031000994209D39A4207D3101A401E0CE0491C97
:1003200001620220E6E710E0994204D3101A6FF050
:100330007C41084400E00020E388227940F6E63161
:1003400080B25DF787FB25F71AFE6D1CADB2092D53
:10035000B0D9B8F1000F13D156480078062811D152
:10036000207A00280CD125F718FE2079524951F83F
:100370002020521C22F07C4241F8202025F7FFFD6E
:10038000BDE8F88F40F675410C2025F792FD0090EE
:1003900021790171E188C180217A0172684625F7CF
:1003A000D6FDEDE770B525F702FE044625F797FD6B
:1003B0004FF4FA7502280CD12068A0F54061593934
:1003C00007D12046FFF746FF2946082025F771FD93
:1003D0000446206804280FD125F781FD0C280BD195
:1003E00020790D2808D1354E611D3046EEF6C4FA4D
:1003F000611D3046EEF606FB20684D281AD125F720
:100400006EFD042816D1A0882D2102462C4B4843AE
:1004100003EB800191F8266066B913F820000128EB
:1004200008D1487C0E2805D0072A03D8204600F7BB
:1004300049F9256025F753FD012808D12068A0F56A
:100440003061E73903D12046FFF729FF25602046B8
:1004500070BD10B504463BF73AFD2D2104FB01F0B9
:10046000184901EB800090F83C00042805D1204693
:10047000BDE8104000213AF7B1BD10BD987E0020C4
:1004800064860020E056002030C400203061002047
:100490000617A1AAC05B002054890020C8AB002029
:1004A000585B00204D5B0020EC5900208893002011
:1004B0000659002054590020709C00203C11012056
:1004C0006C760020909E00202DE9F04180460C467D
:1004D0001746FEF773FAFF287DD00D2608FB06F8B5
:1004E000FF4D05EBC80191F83120FE4B032A01D0E6
:1004F000062A1BD1DFF8F0C34FF4207E0CEB40102E
:1005000090F80AC04FF00308BCF1000F0FD07445FB
:1005100005D9032A0BD1062081F8310078E0062A9C
:1005200004D181F831800089A1F8440080E0062AD6
:100530007ED1BCF1000F7BD14FF0000C012F03D115
:10054000028B521C028304E0C26912B9A0F818C0E1
:100550001DE0028B2D2A1AD9C26962B94A6B1F6845
:100560001C37BA4213D84788A1F84670BFB23A4444
:100570000E32C2610BE01F68BA4208D2B1F84420C3
:10058000724501D0A1F84680C0F81CC0DEE7B1F882
:1005900044704269A7423ED21C68A24202D2C0F80F
:1005A00014C000E0B2BB4A6B1C681C34A2423FD8A6
:1005B000B1F846C0774502EB0C0404F10E0828F0B0
:1005C0007C48C0F8148033D0078A7F1CBFB20782F2
:1005D000B0F90E8000E05BE0B8F1000F02DB2246CC
:1005E0004C6302E0A2EB0C024A6322F07C4208F169
:1005F00001084A630FFA88F2C2818489A24201DBB2
:100600005242C281B7EB440F12D34088A1F8460092
:10061000A1F844E00CE05AB1A0F810C0A0F80EC058
:10062000A1F846804A889200A1F84420C0F814C07E
:100630001C6891F831001234062829D1486BA04279
:1006400026DCAA4A0120178820E000BF00FB06F242
:1006500015F83230012B17D105EBC20292F8303079
:10066000032B11D192F83130012B00D063B9536BB9
:10067000A34209DCB2F84420B1F84430B2EB430F96
:1006800002D94A6B12324A63401C80B2B842DDD9AB
:10069000C3E570B5964E934C706921684FF4C84518
:1006A0000AE02168401A0AE02168081A07E00120E0
:1006B000FFF724F8706921688842F5D9F1E771697C
:1006C0002268914201D2A842F1D32268914201D915
:1006D000A842ECD870BD10B53222854B142800D941
:1006E000DA8D9C8D224492B250434FF47A6200EB33
:1006F0008000B0FBF2F01D30B0F5FE7F05D8810719
:1007000000D0012101EB900012E0C00040F6C412BD
:10071000B0FBF2F01A8D401C4A43C0B2921E40F06A
:100720008000510020F080028A4202D941F080000E
:10073000C0B2A2E62DE9FC416D4C0F2294F83C10AA
:10074000B2EB111F70D094F83D20002A6CD0012A22
:100750006AD0FF2201F0040101920092042963D2C1
:100760006A4601A9FFF724F89DF804100023614DA3
:10077000614E0D27DFF868C1FF2935D0E07EB8B99A
:1007800094F83900401CC0B284F8390032789042A5
:1007900003D294F838E0964526D394F83820904256
:1007A00006D2238794F83900401C84F839001BE0F6
:1007B00035F81100514978430CEBC000808C097862
:1007C0004843218D80B281422FD2B0FBF1F0618C81
:1007D000401C084480B2814206D294F83C1041F09B
:1007E000F40184F83C1020879DF80010FF294CD0BC
:1007F00094F83C2002F00200022824D2E07E10BBD4
:1008000094F83B00401CC0B284F83B0094F83AE0F6
:100810003678B64501D2B04215D370450DD342F0BB
:10082000F20084F83C000EE02FE094F83C0040F029
:10083000F40084F83C00608CD5E7638794F83B00B3
:10084000401C84F83B0094F83C20D0071DD1E07E8A
:1008500000281AD035F8110000FB07F00CEBC0009F
:1008600090F8301011B1B0F8440000E04088218DBC
:1008700081420AD8B0FBF1F080B2618C401E08447E
:10088000E08642F0010084F83C00BDE8FC8110B530
:1008900021F73BFB1A4C2078FF2809D00D2807D9F7
:1008A00052F79CFF0921B0FBF1F201FB120020700E
:1008B000E3E530B48188038ACAB2124902EB8204AC
:1008C00001EBC4014D8847F6FF745B1B9BB2A3424A
:1008D00004D330BC282110465AF7AFB8886113E022
:1008E00088930020545A0020209D00207459002035
:1008F000B49A00201C9B0020565900205559002016
:100900002D5900203498002040F68B51016030BCF6
:10091000704730B40279FC4902EB820401EBC40158
:10092000C3884D8847F6FF745B1B9BB2A34204D378
:1009300030BC282110465AF780B8C86140F6915162
:100940000160E4E770B5F14C00252168F04E0968BC
:10095000A1F550608A3813D125F7C1FA01280FD1CB
:10096000206896F830108288914205D196F83510AB
:1009700011B1FEF72FFF01E0FFF79BFF256070BD6F
:1009800020680068B0F5596F12D125F7A8FA012840
:100990000ED1206896F830100279914205D196F870
:1009A000351011B1FEF714FFE8E7FFF7B2FFE5E7F6
:1009B00021680968A1F55060953807D125F78FFAAD
:1009C000012803D121684FF4FA700860BDE8704037
:1009D0001AF7B4B92DE9F04F8DB0DDE918ABDDE9B8
:1009E000168906460F4694469E461EA80FC8C94D56
:1009F000012485F8294008AC0FC41AA80FC88DE857
:100A0000000F04AC0FC47346624639463046F0F618
:100A1000BEFAC149002008700DB0BDE8F08FF0B5F6
:100A2000BB4D40F2E247687E298A7F2801D8020147
:100A300002E000F003027A4341F28836914201D984
:100A40008A1A01E0521AB21AB14B92B25C7E1B8D27
:100A5000641C072A03D8E0B212E0822013E0222AA5
:100A600006D21C2B04D2521C92B2802804D9E0B2C8
:100A70007F2808D8020109E000EB1210401CC0B228
:100A80007F28F7D9E9E700F003027A43914201D9C0
:100A9000891A01E0511A711A89B21C2B07D241F24E
:100AA0004632914217D3A1F59851453906E041F2FB
:100AB000683291420FD3A1F59851673989B28028E5
:100AC00002D9401CC0B206E000EB1110401CC0B2BD
:100AD0007F2800D982206876F0BD10B556F7EEFC6D
:100AE0008E480068018841F0700101808C48A02187
:100AF0000068BDE810405DF78DB870B5F6F632FCC1
:100B0000884DB5F93C000A2801DD0A20A887A88F86
:100B1000C4B203E003212046FDF7B6FE641C2007A3
:100B2000F8D1B5F93C00C11700EB1170012101EBC0
:100B30002010C0B2002102E025F81010401C1E2831
:100B4000FADB70BD784A116860F3000111607047EC
:100B500010B5044635F726F90D2044437348044484
:100B6000A07818B933F782F833F774F8A078012821
:100B700007D10020FFF7E6FF6D48016841F48021AE
:100B800001607AE410B536F70DFD6A48408B012804
:100B900007D0032805D033F769F8BDE8104033F7D4
:100BA00059B86AE42DE9F05F8046012000FA08F0A8
:100BB00087B2DFF888B15448DFF87C9108EB8801F0
:100BC0000025ABF1260A00EBC10400BF39F815007F
:100BD0008521B1EB102F03D08C21B1EB102F2AD13E
:100BE000C0B2404527D105EB45000BEB40060B2179
:100BF000304612F7FEFF0321304613F745F8301D4B
:100C0000072113F75AF8B01C414613F744F8A07BAC
:100C1000E17B0844C0B2A073252801D32538A07316
:100C2000A17B4046FEF7BAFC0146304612F75FFE54
:100C3000FF2029F815003AF8151039420BD0A07B97
:100C4000E27B1044C0B2A073252801D32538A073DD
:100C5000B9432AF815106D1CEDB20E2DB6D3BDE8C0
:100C6000F09F2DE9F041354D0020354B0124263D04
:100C700033F810104A0506D504FA01F235F81010C1
:100C8000914325F81010401CC0B21328F0D3002661
:100C900004FA06F081B200234FEA030035F8102071
:100CA0000A4205D1401CC0B20E28F7D3012B02D155
:100CB0003046FFF777FF761CF6B2102EE8D3DFF848
:100CC00048C0002104FA01F087B20E2035F8106008
:100CD0003E4210D001EB81020CEBC202937B92F8F2
:100CE0000FE07344DBB29373252B01D3253B937341
:100CF000BE4325F81060401CC0B21328E6D3491C3F
:100D0000C9B21029DED3C3E434980020705A002001
:100D1000B49A002004C4002050590020885B0020B1
:100D2000045C00203875002020D8014030C4002029
:100D300000D80140DAC400201C9B0020566201202C
:100D4000E89B00202DE9F041054600EB8001FE48BC
:100D5000002600EBC104FD480078C8B1FC480078CB
:100D6000012815D1FB4801686068123188420FD90B
:100D7000891C88420CD894F8261031B1012904D07E
:100D8000022905D1A18C890B02D00126C01C60600C
:100D9000284621F79FFC0020EF4FDFF8C0C3012356
:100DA00037F810104A0509D5C9B28D4206D13CF872
:100DB000102003FA01F10A432CF81020401CC0B2A5
:100DC0001328EDD3012E02D16068C01E60605FE47D
:100DD0002DE9F041E14BFF247A330546A3F1540697
:100DE000012822D10020DD494FEA000C21F810C073
:100DF000401CC0B21328F9D30020012700EB4001AA
:100E000006EB4102A2F802C0401C26F81170C0B2E5
:100E1000A2F804C00E28F1D35FF0000023F81040C0
:100E2000401CC0B20E28F9D345E0CD4A052D15D19E
:100E30000020C94F5FF0840637F81010890508D5E7
:100E400032F81010B6EB112F03D123F8101022F84E
:100E50001040401CC0B20E28EED32CE00E2D10D155
:100E60005FF0000033F81010FF2905D032F8104071
:100E7000FF2C01D122F81010401CC0B20E28F1D373
:100E800019E0302D02D1FFF7ECFE14E0312D12D124
:100E9000B44F002404EB440036F81010012906D0AA
:100EA00006EB400107EB400006225AF7FFFE641CE8
:100EB000E4B20E2CEED3284625E740F34000401C58
:100EC00070470D235843A84B03EBC00090F8303017
:100ED000A3B1042B12D0D27C32B1A44A01EB810120
:100EE00002EB8101897939B990F83100062805D0E3
:100EF000042803D0032801D0012070470020704748
:100F00002DE9F0410F46C0EBC0019948164600EBB1
:100F1000011494F86E5001213846FEF709FB012EAA
:100F20000FD194F86A104A0703D594F96D208242D4
:100F300039DC89071BD594F96C10814217DD012536
:100F400016E094F86E10F9B101292ED002290FD1C4
:100F500094F86A108A0704D594F96C20824200DA6A
:100F60000125C90704D094F96B10814200DA0025ED
:100F700084F86F7094F86E00A84201D1012E1ED142
:100F800084F86E500120BEE694F86A108A0704D5F2
:100F900094F96C20824200DD01254907E8D594F9D7
:100FA0006D108142E4DD0225E2E794F86A10CA0779
:100FB000F3D094F96B208242EFDA0025EDE70020B0
:100FC000A1E66C4A1046408C516C11B1C98881422F
:100FD00004D0116C21B1098A814201D101207047EE
:100FE0000020704738B5634C606C18B1BDE83840DC
:100FF00023F77FBC012504F118046577208AE08778
:101000006089A08724F7C9FF002004F8100C54F869
:10101000040CA06384F8345024F7B1FFA06A41891E
:10102000218280896082217F207EFEF79DFA207ECA
:101030006946FEF793FAA06AA4F11804C189BDF8C5
:101040000000814203D094F83000FEF785FA24F7BF
:10105000A4FF494994F830000968020901EB4201F4
:101060000A8C00F00F0085402A430A8424F787FF8A
:101070004048403024F765FF38BD10B524F78DFF98
:101080003C4890F84C4024F77AFF0CB101200FE463
:1010900000200DE410B522F702FDBDE81040FDF779
:1010A000ADBD36480078012804D13548018841F4A7
:1010B000007101801FF799BE10B5314C208820F4D3
:1010C0000070208020F723F92E480078062803D0EE
:1010D000208840F40070208053E5284909780129D0
:1010E00004D127490A8842F400720A801FF71EB80B
:1010F00030B4254B1B88834223D0244B1B8883426A
:101100001FD01A4C00EB800304EB83039B79002B68
:1011100017D14FF00D03144C00FB03F304EBC30392
:1011200093F830401CB193F83130052B09D1184B9E
:101130005C88844202D11B78022B02D030BC24F799
:1011400000BB30BC704700003498002004590020D8
:1011500005590020545A0020E89B002030620120ED
:101160001C9B002098970020889300205489002021
:1011700014B00020B49A0020EC5B00201559002028
:10118000B659002054590020845900208659002067
:10119000B85A002030B4B14C00EB800304EB830359
:1011A0009B79002BCDD14FF00D03AD4C00FB03F329
:1011B00004EBC30393F830401CB193F83130052B96
:1011C000BFD1A84B5C88844202D11B78022BB8D0D7
:1011D00030BC24F79ABBB4E710B504460D21484350
:1011E0009F4901EBC00010F8301F032909D190F886
:1011F0002B00012805D1204602F7AEFB2046FDF664
:1012000086FC2046BDE810401BF7F1B82DE9F041FF
:10121000847901274279057939460E2C00D20021C4
:1012200000295ED1904B04EB440113F801C08F4EAE
:10123000944518D10B44597802290AD08C4A0129C7
:1012400092F88D2002D1AA420DD102E009B9AA423A
:1012500009D09978142908D0C5EBC50206EB021213
:10126000927F914201D0012100E00021C9BBE4B985
:10127000027A437A90F80DC002EB032293B2027B0C
:10128000817A90F80BE002EB0C2201EB0E2080B289
:101290003946871F40F67B4C92B267450FD2B2F5B4
:1012A000FA7F0CD283420AD808E0012C08D1C01D75
:1012B000FEF7E0F9022801D2012100E0002181B906
:1012C00000210C2C0DD1C5EBC50006EB0010B0F8C9
:1012D000642032B190F862201AB1B0F8660000B113
:1012E000012108460FE5F8B5064600680025C279D9
:1012F0002B212C4640F61847B1EB520F08D08588B9
:10130000807D28B16A46294638465CF740FC044691
:10131000304611F752F8002C03D0294638465CF7C6
:10132000A8FBF8BD70B5534C94F83520032A2BD197
:10133000226C4AB3504B1B7833BB618C108A491E18
:1013400089B2421A1546884200D20A1A94F821102E
:1013500090B201290AD1618D814207D80420FEF79D
:10136000CDF9002084F8210084F82000A8B24EF6C0
:10137000FF71884201D200280AD194F83000BDE8FC
:101380007040282159F759BBBDE8704023F76EB86B
:1013900070BDFEB50C460179012901D002294ED15C
:1013A000364D05F108068CB940F6DC310C2024F7E7
:1013B00080FD029006223146001D5AF777FC029804
:1013C000698A418102A824F7C2FDFEBD2C482B4A40
:1013D00001780027957801290CD107700622314643
:1013E00068465AF763FCDDE900230C21284637F7ED
:1013F000E5FE20E0012D4FF004014FF00C000CD170
:1014000024F757FD0290047106223146401D5AF719
:101410004DFC02A824F795FD0DE024F74AFD02904B
:10142000047106223146401D5AF740FC0298C772EB
:1014300002A824F783FD1148FDF788FDFEBD214673
:1014400038F7B4F8FEBD0F4931F81020521E062AB5
:1014500002D8FF2221F81020704700005489002094
:1014600088930020B85A0020244DF71F14B00020A4
:1014700064AF0020B49A002054590020228000203C
:101480009C5700201C9B002070B583880024FF4DD2
:101490000D2B06D16B681B79022B01D0012B00D1DB
:1014A000012425F708FA012C02D1296802200870CE
:1014B00070BD30B4F54BDC682478032C02D09B68F7
:1014C00001241C7030BC31F7D5BCF0490A6912798F
:1014D000012A01D149690A7007F7BCBB10B524F78E
:1014E0005CFD36F7ACFFBDE8104024F748BD30B4D2
:1014F000E74C01232370E84BE64D1C685AB304F116
:10150000A004D4F8882042F08002C4F88820D4F8DF
:10151000382142F00102C4F83821226842F4204206
:101520002260A26822F0FF0242EA0102A26095F85E
:101530001411A4F1A00441B9D4F8AC1040F6114242
:1015400021F00E011143C4F8AC10D4F8001141F49D
:10155000C051C4F80011D4F8001140F27F13994330
:1015600095F8102441F4C0410A43C4F8002195F8CD
:101570000F140346022230BC0520FEF7A1BC002256
:101580001146C648B3E701220021C548AFE7012252
:10159000FF21C448ABE738B5BF4C206850F8A01F06
:1015A00021F40041016059F78DFF6A4601217E2038
:1015B000FEF76EFB9DF80000012809D1B548B0F890
:1015C00032242068D0F8F81162F30901C0F8F8114C
:1015D00038BD70B5B44D044695F88901002168BB4B
:1015E0000126012C12D0022C18D152F761F885F88F
:1015F0008A0151F7D7FFFEF7F5FAA7480068D0F83F
:10160000041141F44041C0F80411FF2185F88961BB
:101610000122D5F88C01FFF76AFF0DE020464AF75A
:10162000BDFC85F889619B48022290F80F140520C3
:10163000D5F88C31FEF744FC002070BD022805D19E
:1016400095F88801A04209D0FFF7A5FF95F8890118
:10165000012803D114B9022085F889012046BDE88C
:1016600070404AF79BBC10B55CF7CDFB8F49012059
:1016700008604FF000020A608D4908600A6010BDE2
:1016800038B504461846049B009303460D46204691
:101690002FF760FB7D49B4F5A17F087707D1012DB5
:1016A00005D18248012202604FF000020260087FEB
:1016B00038BD76495831002241F820207047734BDD
:1016C0000022583353F82130834201D3181A01E025
:1016D000C04318446D4B1B6A03EBC101496881424A
:1016E00000D8012210467047684B583343F8220057
:1016F0006648006A00EBC20041607047F0B56A4D71
:1017000095F88D00032805D0042802D1032085F820
:101710008D00F0BDB5F99620B5F99800824200DC45
:101720000246C82042430126B5F99410304601B163
:10173000084692FBF0F0554F564C803797F84C30E6
:1017400094F83F1494F83E24C0F1C800ABB195F86A
:101750008F3093B913468A4200D30B4694F9F54370
:101760002344834209DB002087F84C0005F18C05F7
:101770006E704FF002002870F0BD141A2646831ACE
:1017800000D41C46B5F99A2094420ADA3246002B5E
:1017900000DB1A4605F18E05AA816A78AA70A5F1C8
:1017A0008E050B1A1C46421A00D41346B5F99C004C
:1017B00083420ADA2046002A00DB104605F18E0536
:1017C000E8816878E870A5F18E05042005F88D0F92
:1017D000A878401CA870F0BD2DE9F041324C2B4E8A
:1017E0004FF08C0094F88D100227DFF8C8C0005D20
:1017F0004FF00108803621B10425012915D00229B6
:101800006AD1012808D10B205AF7C7F904F88C7F58
:10181000677086F84C807CE084F88D8068E0172043
:101820005AF7BBF9D4F8A00007E0012809D1172026
:101830005AF7B3F904F88C7F6069BDE8F041FEF710
:1018400009BAB4F99200B4F994201249821A91F9B4
:101850004234002796F84C6038460EB991F9F603E9
:10186000184440B2404202EB800001B2D4F8A0001C
:10187000FEF7F2F9D4F8A00049F7BDFA002850D0DD
:1018800004F18C04606949F7BEFA15E0C8620120D2
:10189000446000204C1B01206056002081F8F51F99
:1018A00041F5F51F51F2F51F00600020B0002842FD
:1018B00028623942A3F3F51FC6B2606949F757FAA7
:1018C0003046676151F71AFF032020706570E7709A
:1018D0000B205AF762F91CE0012803D1BDE8F04162
:1018E00049F7A6BEFFF70AFF94F88D0001280CD136
:1018F000D4F8A000002892D101464FF00F026046B4
:10190000FEF7A6F9C4F8A00089E794F88F000F2825
:1019100003D8BDE8F041FEF797B904F88C5F0520C5
:101920006070BDE8F08110B5FF4B93F81431002BC7
:1019300021D17AB100F00E04022303EB440400F03D
:101940000100204301F00E0403EB440301F0010108
:10195000194301E0C0F34012F44B1B6853F8584F91
:1019600062F308241C60DA6F60F3CF22DA67586FE5
:1019700061F38E20586710BD2DE9FC410D46089992
:10198000064601EBD200007801909DF8040002F0B9
:101990000702D04001901C46C00704D1E44890F9EA
:1019A0004D0000282ADC01EBD501042268465AF7D5
:1019B0007DF905F00700009DC4F12001C5404FF0FE
:1019C000FF3727FA01F005407209009516F01F0154
:1019D00004D0C1F1200027FA00F300E000238D407D
:1019E000D3480E198038406A202E09D8B74050F8E5
:1019F00022101F433940294340F82210BDE8FC81E2
:101A000050F822601E40CBB2C3F120032E43E31AEC
:101A100040F822609F40009BC1F12001CB40521C46
:101A200091B250F821203A401A4340F82120E5E7CE
:101A3000F8B5BF4F0446803FB86A0D460078164699
:101A400020B9FEF723F9B96A01200870B84A0820C6
:101A500082F84D00D7F8241092F94D0051F820304B
:101A60002BB9401E40B282F84D000028F4DCAE488D
:101A7000B0F8C403C00703D192F94D00002877DC09
:101A8000AC4B00931F460723082218210120FFF7C3
:101A900073FF07230922202108200097FFF76CFF1E
:101AA00005230A2228210F200097FFF765FF052351
:101AB0000B22302114200097FFF75EFF07230C2232
:101AC000382120200097FFF757FF0B230D224021DC
:101AD00027200097FFF750FF07230E2250213220C6
:101AE0000097FFF749FF08230F2258214020009755
:101AF000FFF742FF08231022602148200097FFF7DC
:101B00003BFF10231122702150200097FFF734FF74
:101B100006231222682172200097FFF72DFF06236B
:101B200013224FF4D07178200097FFF725FF04238C
:101B300014224FF4D47192200097FFF71DFF052364
:101B400015224FF4E07196200097FFF715FF102340
:101B500016224FF4D871A0200097FFF70DFF052340
:101B600017224FF4E4714FF4DC700097FFF704FF85
:101B700071497248EAF65AFD324629462046BDE8C8
:101B8000F840FCF60DB92DE9FC5FDFF8A481814631
:101B9000A8F18008D8F82C000D460178924600295B
:101BA00054D0D8F830200126136801291C7801D9B7
:101BB0005F7803E002266F78491C01700078391ABB
:101BC000891C01F0FF0B11685A460844A9195AF7FD
:101BD0006DF8FD2C08D101200146019001AA3520A5
:101BE000FCF786FEA3210BE0852C07D0862C05D0C0
:101BF000DD2C03D0DE2C01D0DF2C11D14FF4AE71DF
:101C0000FC2024F756F90090D8F830103A460968BD
:101C1000001D891C5AF74AF8684624F792F907E034
:101C2000D8F83000394602682046921CFCF760FE66
:101C300006EB0B00C0B2A9EB00010022491CD8F84A
:101C40002C3005441A7001F0FF096D1E52462946DA
:101C500048462EF71FFDBDE8FC9F10B5044624F74B
:101C60009CF9204632F757F931498039486B0078A2
:101C7000062802D1896B80208847BDE8104024F7F0
:101C80007EB92B498039802804D1486B007806281A
:101C900002D10020C96B0847704710B531F759FBD6
:101CA00023498039086CC96B02688A4202D1AFF2BD
:101CB0002D01016010BD2DE9F0410646884615460C
:101CC0001C4624F76AF90B20194F4443803F786C77
:101CD00000EB8400016919B124F751F90A2020E6CC
:101CE000C0F824800221C661016124F748F97B6CA9
:101CF000002603EB8400C66053F8241091F83010DE
:101D000001B3491E426AC9B2002A1BDDD1B153F8A2
:101D10002420D0F81CC012798CF80020C269521C13
:101D2000C261426A521E0BE04C1B0120605600202B
:101D300048630120101F0120113A0120211BF11FCF
:101D40004262DEE724F729F9796C51F8240090F813
:101D5000202001EB84000EE051F82420C3691279A1
:101D60001A70C269521CC261426A521E426251F824
:101D7000242092F82020436A002B02DDD207EBD109
:101D80000BE053B9016919B924F7F9F80C20C8E53B
:101D9000066124F7F4F80020C3E5C56051F824205B
:101DA00051F82430127E22F080021A7651F8242055
:101DB00051F82410127B42F001020A7303210161E1
:101DC00024F7DDF80B20ACE538B5040042F21070C2
:101DD0001CD0641E6A4605211420FDF759FF9DF8AA
:101DE0000000C00040B2C0100090204440B2002863
:101DF00001DA002002E0272800DB26209B4901EBC6
:101E00004000B0F8CC0000F2111080B238BD2DE9CE
:101E1000F0410746002486B025460B20FEF7E0F887
:101E20000020F3F6DAFD01210520FEF7E7F8904ED9
:101E300096F82E00012800D1012496F82D004FF0CD
:101E40000008022825D0032823D13068017841F00A
:101E50000101017096F8370028B100200CF7ABFDA6
:101E600001200CF7A8FD3068017F41F020010177C7
:101E7000017F012541F0020101777169032908D131
:101E8000017E01F07F010176017B41F001010173C8
:101E900032E0706905282FD11FBBB06AADF8080089
:101EA0008DF80B808DF80C80306A01903068062127
:101EB000001D009001208DF810006E4805908DF8EF
:101EC0000E1002208DF80D006B488DF80A80006816
:101ED000694690F8A00301284FF0000002D1FEF7F8
:101EE00035F809E0FEF734F8306890F83000400625
:101EF00017D00020FEF72EF886F82D703068017F8D
:101F000041F00201017724B186F82E800120FDF70F
:101F1000D9FF002D03D04FF00500FEF75FF806B0A3
:101F2000FFE40520FEF75AF83068A9E710B5504CD9
:101F3000002084F82E0094F82D0002284FD10520AF
:101F4000F7F6B0FF012846D0606A20B9206890F803
:101F50002000400603D4BDE810400BF774BC0021FC
:101F60000846F4F63AF82068017F01F0DF010177B6
:101F7000017F01F0FD010177032184F82D10017824
:101F800001F0FE01017094F8370028B100200CF731
:101F900042FD01200CF73FFD00210520FEF72EF841
:101FA00094F82D0003281AD10520FEF719F894F8AB
:101FB0002D00032804D0BDE810400520FEF70EB820
:101FC0000020F4F62FF80B20FEF708F80520F7F6AE
:101FD00069FF012803D1BDE81040002017E710BDBC
:101FE00022498A7A0AB101224A7325F79CB923480B
:101FF000806C006F2249C0F31000081A40F276216D
:102000004843800900B205F7A7BD022803D11D4A45
:102010000421A2F8501005F75AB838B5054625F73F
:10202000A4F8164C606D216D007851F820000078FE
:1020300003281AD1002D18D06A464FF005014FF041
:102040009B00FDF725FE9DF9000000280DD0C1067C
:1020500002D540F0F0000090E06C9DF80010007890
:10206000084441B2092057F7ACFF38BD006000209A
:10207000B06E0020417CF61FE0560020C8620120AF
:10208000BA8C0100BEBA002010B523F786FF124AB1
:10209000124B9A420BD012488108002005E000BF85
:1020A00052F8204043F82040401C8842F8D30D48A5
:1020B0000D4B82080020014603E000BF43F82010CA
:1020C000401C9042FAD300F011F800F023F923F7F6
:1020D00056FF002010BD0000003E0120003E012000
:1020E00098250000000000009863012010B54549C4
:1020F0004548EAF69BFA45494548EAF697FA4549C4
:102100004548EAF693FA45494548EAF68FFA4549C3
:102110004548EAF68BFA45494548EAF687FA4549C3
:102120004548EAF683FA45494548EAF67FFA4549C3
:102130004548EAF67BFA45494548EAF677FA4549C3
:102140004548EAF673FA45494548EAF66FFA4549C3
:102150004548EAF66BFA45494548EAF667FA4549C3
:102160004548EAF663FA45494548EAF65FFA4549C3
:102170004548EAF65BFA45494548EAF657FA4549C3
:102180004548EAF653FA45494548EAF64FFA4549C3
:102190004548EAF64BFA45494548EAF647FA4549C3
:1021A0004548EAF643FA45494548EAF63FFA4549C3
:1021B0004548EAF63BFA45494548EAF637FA4549C3
:1021C0004548EAF633FA45494548EAF62FFA4549C3
:1021D0004548EAF62BFA45494548EAF627FA4549C3
:1021E0004548EAF623FA45494548EAF61FFA4549C3
:1021F0004548EAF61BFABDE8104044494448EAF66F
:1022000015BA000015290120013E0120B12A012044
:102210001F3E0120592601202541012021300120A7
:10222000473E0120293001205B3E0120513801202A
:102230006F3E012049370120BF3E0120AD2901201A
:10224000513F01204D250120D34101204927012084
:1022500049420120A934012057440120453501207D
:10226000B54401205D3401200F46012019220120D0
:10227000C5460120E126012055470120AD3401204B
:102280009F470120352601207B480120812A01201B
:102290005B480120AD370120D1480120613C01207D
:1022A00005490120BD290120514B01205134012055
:1022B000C54A012089340120654D0120B534012033
:1022C000154E012059290120234E0120FD2901200E
:1022D000394E0120992901205B4E0120B9280120A7
:1022E00067500120ED350120714E0120F1350120AC
:1022F000154F012005240120594F012015330120DD
:102300008D4F012091340120A5500120012D012085
:102310001351012010B538493848EAF687F9384991
:102320003848EAF683F938493848EAF67FF93849F7
:102330003848EAF67BF951F7E7FC37493748EAF6BF
:1023400075F937493748EAF671F937493748EAF6F7
:102350006DF937493748EAF669F937493748EAF6F7
:1023600065F937493748EAF661F937493748EAF6F7
:102370005DF937493748EAF659F937493748EAF6F7
:1023800055F937493748EAF651F937493748EAF6F7
:102390004DF937493748EAF649F937493748EAF6F7
:1023A00045F937493748EAF641F937493748EAF6F7
:1023B0003DF937493748EAF639F937493748EAF6F7
:1023C00035F937493748EAF631F937482021416075
:1023D0003649486880F4805048600020401C052839
:1023E000FCDB486880F4805048600121BDE8104063
:1023F0000846FDF7FFBD00002D3D012009520120D8
:10240000E53A012033520120A93A01204B52012024
:10241000253A01205D5201204D390120FF52012053
:10242000C539012007530120093901200F5301202C
:1024300089390120535301205D39012017530120B0
:10244000B539012059550120DD390120A756012059
:10245000953D0120E7530120ED3C0120015401206E
:10246000113A0120B1570120F53C01200759012004
:10247000D53A0120DB590120FD3A01201B5A0120E9
:10248000493A0120495B0120E1380120615D0120CA
:10249000613B01206F5D0120893B01208B5D0120A4
:1024A000C13801209B5D01202C71002000400140BB
:1024B0000500000000000000000000000000000017
:1024C000000000000000000000000000000000000C
:1024D00000000000000005000000000000000000F7
:1024E00000000000000000000000000000000000EC
:1024F00000000000000000000000000000000000DC
:1025000000000000000000000000000000000000CB
:1025100000000000000000000000000000000000BB
:1025200000000000000000000000050000000000A6
:10253000000000000000000000000000000000009B
:102540000000000000000000FD5E0020A06D0020E3
:10255000FF5E0020FD5E0020A06D0020FF5E0020D9
:1025600000400140000000002C710020CC6D0020D4
:10257000A8550020355F00203C5F0020FC5E002055
:102580006B72F41FEF6FF41F085F002030C3002050
:1025900000400140B460002016600020136000205D
:1025A000000000000000000000000000000000002B
:1025B000000000000000000000000000000000001B
:1025C000000000000000000000000000000000000B
:1025D00000000000000000000000000000000000FB
:1025E00000000000000000000000000000000000EB
:1025F00000000000000000000000000000000000DB
:1026000000000000000000000000000000000000CA
:1026100000000000000000000F00203BBC80203BB9
:102620006C91203B2881203B0004D83C0004D83C1E
:102630000004D83C0004D83C000140300514403070
:102640000920403035184030010040300003D83CAC
:102650009C7E4E7F0205D83C2890803B4002C032D1
:102660000206D83C0000803C0F00203B0A80203B43
:102670009B00203B3481203B4881203B6B81203BE9
:102680007181203BA981203B4782203B5F82203B18
:10269000DD82203B7C83203B7E83203B8C83203B60
:1026A000E483203BF983203B1484203B9E84203B21
:1026B000F584203B6785203BDA85203BA100203B49
:1026C000F786203B1B8E203B7E8D203BAB00203BC2
:1026D000988D203B558D203B328D203B698C203BD3
:1026E000408C203B868B203B6A8B203B4A8B203BD7
:1026F000B400203BC28A203BE989203BD089203BA3
:10270000A788203B7688203BF986203B049C203B11
:10271000189C203B499C203B749C203B919C203B77
:10272000A09C203B0301203B6D91203BBE91203BB0
:102730005B92203BD292203BC192203BB592203B42
:102740004999203B5299203B5F99203B6C99203B53
:102750007999203B419A203B8E9B203BC19B203B9B
:10276000B09B203BE49B203BD79A203BEB9A203B3D
:10277000749B203BB098203BBA98203BC798203BE5
:10278000E098203BDE92203B5C93203B9197203BDE
:102790000498203BE993203BF993203BD600203B53
:1027A0005594203B3D94203B2294203B0D95203BAB
:1027B0009598203BE595203B2C96203BC496203BEA
:1027C000CF96203BAC96203BDD96203BBD00203BC6
:1027D000EE9F203B71A0203BC69F203B3CA1203BAD
:1027E0004BA1203B5AA1203B63A1203B72A1203B7F
:1027F000A8A1203B0AA3203B25A3203B7AA4203B91
:102800001CA6203B5FA7203B7AA7203BA3A7203B29
:102810004AA8203BE7A8203B15A9203B07AA203B5C
:1028200035AA203B64AA203B29AC203B44AC203B8A
:1028300091AD203BF0B1203BFEB3203BE2B4203B06
:10284000EF9C203BF59C203BF89C203B229D203BAD
:10285000279D203B2C9D203B879D203BAB9D203B13
:10286000B49D203BB89D203BCA9D203B099E203B48
:10287000309E203B8C9E203BD19E203B858D203B73
:102880001D9F203B01FD3F6C5280803B04050134BD
:102890003F5800B50003D83C7F7D4E7F01FD3F6C63
:1028A0005E86803B9C7E00B53FD8BF7EA400803012
:1028B000A4000034BAFF803A470000310003D83C3E
:1028C0000540206001FD3F6CB38B803B9C7E00B5D2
:1028D000A5008030B9FF803AA50000383F5800B508
:1028E0000003D83C7F7D206001FD3F6CE58A803B82
:1028F0009C7E00B5A40000383F580083BB00633BBA
:102900005E0000340003D83C7F7D4E7F01FD3F6CAC
:102910003A97803B9C7E00B59C7E1082C500633B4D
:102920003F5800B5D300003BA40001345E000A38D4
:102930009CFE1493CF00623BCD0078203F58A08BC3
:102940009C7E00B505E4B4914C0010380076207FE1
:10295000D300203BC28A803B9C7E00B5A40000349B
:102960003F5800B50003D83C7F7D808B9C7E00B52E
:102970000A7D3C6BF9553D6A7B5800B53395803B29
:10298000F75600B5395400B50B00883A884200B5B7
:102990007CD214920001633B5E0008389CFE1093C9
:1029A0000001633BB8D4879B0400893A0A4C456117
:1029B00024FB06608C4066603900103076526660F9
:1029C0007D507F69FFFF313AB67400B56200803BED
:1029D000F85400B538D49B6AB954DD6A6500803B71
:1029E000F6FF0A3AB9541C6A0A00893A0400803A90
:1029F000FFFF303A084000B5424C10A3BE5261615F
:102A00003DD21D6C0101423B40421E690003D83C8F
:102A1000767D9F9B9C7E00B53B581E690003D83C89
:102A2000767D4E7F0400983A18450571E0412032CA
:102A3000027D3F6A5CFE2F31174C117410FF0F317D
:102A40000742B17DE0413032427B00B51101782070
:102A5000C862008B1F422080974200B51FC208D079
:102A60003E5500B5A40140305EFE3F3024013C20BD
:102A70007F5400B5C862C08B83E44F611D0178208C
:102A8000174C00B5427B4080974300B59F4239D038
:102A90009C7E00B59CFE08A22301643B9C7ECEA0D8
:102AA0009C7E28803E556D90BF5500B54AE25B90F4
:102AB00063682990617B08829C7E51BC5CFE3F303C
:102AC0009CFE69A043E4D8900FCC907D78005030F4
:102AD0003201F02040E006A39FC2DEBD8F4300B567
:102AE0009FC238D0A5015030C2E0AEA09C7E17A294
:102AF0004801673BBE54B9B04701C53C5DFE6F302D
:102B0000BF55CBA046E44F614001F0200F4C00B50B
:102B1000217B40808F4300B59F4239D09C7E00B519
:102B20009CFE08A24601643B9C7E7AA09C7E288085
:102B3000BED4D890BF5500B50003D83CB400403097
:102B40007EFD91B00000D1008834F41F0100ED003B
:102B5000E037F41F020009016830F41F030025016B
:102B60000C7BF31F040045010417F01F05006101F1
:102B700018A2F51F06007D01FCF8F21F07003102C4
:102B8000407CF31F08005F02208AF31F0900BD018B
:102B9000C064F51F0A00E501147AF51F0B0003025B
:102BA000245AF51F0C009502542BF31F0D00B5029B
:102BB000882BF31F0E00D30250F8F61F0F006D0391
:102BC000547BF41F100095035404F71F1100D70421
:102BD0002071F61F1200B903E814F11F1300DF0380
:102BE0001015F11F14000D047C15F11F15003104A0
:102BF0006C25F21F16004D04BC19F21F17006B0460
:102C0000EC15F21F18008B04D01DF21F1900B5043B
:102C1000D815F21F0FF20500E9F684BF03B5E9F6F7
:102C200079FFBDE80340C1803E21DFF8388240478C
:102C30000FF20500E9F676BF03B5E9F66BFFBDE8D4
:102C400003403E210181DFF8208240470FF205005A
:102C5000E9F668BF03B5E9F65DFFBDE803403E2134
:102C60000181DFF8089248470FF20500E9F65ABFE4
:102C700003B5E9F64FFFBDE803400FB4FDF79FFF32
:102C80000FBC7B4A104700BF0FF20500E9F64ABFB0
:102C900007B5E9F63FFFBDE807403068C48C754DC5
:102CA000284700BF0FF20500E9F63CBF07B5E9F67B
:102CB00031FFBDE80740FEF7B9FB6F4D284700BF65
:102CC0000FF20500E9F62EBF07B5E9F623FFBDE8D0
:102CD00007400FB5304621464A463B462DE9D0060F
:102CE000FEF785FBBDE8D006002803D0BDE80F4005
:102CF00062480047BDE80F406148004700BF00BF81
:102D00000FF20500E9F60EBF07B5E9F603FFBDE8CF
:102D1000074006D801B440F2F310814501BC00D849
:102D200086425848004700BF0FF20500E9F6FABE98
:102D300007B5E9F6EFFEBDE8074040F2F312914215
:102D4000514A104700BF0FF20700E9F6EBBE07B586
:102D5000E9F6E0FEBDE8074001B440F2F310834518
:102D600001BC04D80A2F02D387424848004748488C
:102D7000004700BF0FF20500E9F6D4BE07B5E9F63B
:102D8000C9FEBDE8074007B5FEF7B1FB8246BDE8C6
:102D90000740BAF1010F01D13E4908473E490847B3
:102DA00000BF0FF20700E9F6BDBE07B5E9F6B2FEB7
:102DB000BDE807404FF000011D2B08D80BB5FEF70A
:102DC000F2FB0246BDE80B40DFF8D0C06047DFF8F9
:102DD000D0C0604700BF00BF0FF20500E9F6A2BEF9
:102DE00007B5E9F697FEBDE8074005B4FEF7C1FD5B
:102DF00005BCDFF8B0C060470FF20500E9F692BEEF
:102E000007B5E9F687FEBDE8074004B4FEF7B1FD5B
:102E100004BC254800470FF20700E9F683BE07B55A
:102E2000E9F678FEBDE807402968D1F8000140F4D2
:102E30000050C1F80001D1F8000140F48040C1F811
:102E4000000124B44FF002014FF06E00FAF67DFF4E
:102E500024BC296851F8AC0F40F010000860002A2B
:102E6000124908478D34F41FE537F41F6D30F41F05
:102E7000817BF31F0917F01FDBA2F51F03F9F21F77
:102E8000E9F8F21FCB64F51F197AF51F335AF51FC5
:102E9000715AF51F517CF31F697CF31F2B8AF31FB6
:102EA000C18AF31F592BF31F8D2BF31F6BF8F61FED
:102EB0000FF20500E9F636BE2DE90750E9F62AFEC5
:102EC000BDE8075042691AB982781AB1584A1047CA
:102ED00058480047584A10470FF20500E9F622BE4D
:102EE0002DE90750E9F616FEBDE807508068FDF7AA
:102EF000C7F9616900208860504908470FF2050052
:102F0000E9F610BE2DE90750E9F604FEBDE80750CA
:102F100001F8342003B42046FEF761FE03BC484AA2
:102F200010470FF20700E9F6FDBD2DE90750E9F65D
:102F3000F1FDBDE80750E83E16F83400FAF68DF8CA
:102F40000EB42146FEF751FE0EBC05463D48004733
:102F50000FF20500E9F6E6BD2DE90750E9F6DAFDC6
:102F6000BDE807500EB429462246FEF753FE0EBCBC
:102F7000354800470FF20500E9F6D4BD2DE90750AA
:102F8000E9F6C8FDBDE80750FFF72BF92F4C2047A5
:102F90000FF20500E9F6C6BD2DE90750E9F6BAFDC6
:102FA000BDE8075000200AF7F7FF294800470FF255
:102FB0000700E9F6B7BD2DE90750E9F6ABFDBDE81E
:102FC00007502DE9F041FFF7B8F9224800470FF20A
:102FD0000700E9F6A7BD2DE90750E9F69BFDBDE81E
:102FE000075096F82D00022802D30120FFF7A5F91B
:102FF00023F75BFA184800470FF20500E9F692BD87
:103000002DE90750E9F686FDBDE807504FF47A71C7
:103010004FF00102114B124800470FF20700E9F68A
:1030200081BD2DE90750E9F675FDBDE807507047F1
:10303000597BF41FA57BF41F677BF41F5D04F71F0A
:10304000ED14F11F2715F11F8F15F11FB521F21F88
:10305000C319F21F2D17F21FE31DF21FAD5C0120F3
:04306000DD15F21F69
:00000001FF
